:100000000C9442000C9400000C9400000C9400002E
:100010000C9400000C9400000C9400000C94000060
:100020000C9400000C9400000C9400000C94000050
:100030000C9400000C9400000C9400000C94000040
:100040000C9400000C9400000C9400000C94000030
:100050000C94000042544C20444C5444444B004205
:10006000593A2053434E542047524F55500080C0B8
:100070000B00600154000F006B015F0002007A0169
:100080006E000000F894EE27ECBBF1E0FBBFEBBF85
:10009000E5BFF8E1F1BDE1BD8DE0A2E0BB27ED9346
:1000A0008A95E9F780E094E0A0E6ED930197E9F7FF
:1000B000E0E7F0E085919591009761F0A591B59109
:1000C00005901590BF01F00105900D920197E1F7A1
:1000D000FB01F0CFEFE5EDBFE4E0EEBFC0E6D1E01D
:1000E0000C947200E0E0EBBBEABBE8BBE7BBE5BB0E
:1000F000E4BBE2BBEFEFE1BBE0E0E3BFE2BFECBF9C
:10010000EFBDEEBDEDBDECBDE7BDE6BDEBBDEABDAF
:10011000E9BDE8BDE2BDE5BDE4BDE3BDE5BFE4BFCB
:10012000E9BFEAB9E0E8E8B9E0E0E0BFE6B9EDB977
:10013000E6BFE0E1EA9387D057D0E0E0EA93EA93A4
:1001400046D0E0E6F1E0FA93EA936ED0E0E0EA937D
:10015000E1E0EA933CD0EBE6F1E0FA93EA9364D075
:10016000E0E3A3D0E8E2A1D0FBCFFFCFE881E071CC
:1001700011F0AC9A01C0AC98E881E07211F0AD9A30
:1001800001C0AD98E881E07411F0AE9A01C0AE985C
:10019000E881E07811F0AF9A01C0AF9885E08A95C8
:1001A000F1F7AA9A8DE08A95F1F7AA988DE08A95E1
:1001B000F1F779C0E881EA93D9DFE881E295E88335
:1001C000E881EA93D3DF85E88A95F1F76CC0E8818E
:1001D000F0E0E658FE4FE081A981EA0FEA93EADFFA
:1001E0005980488022960895E2E066D0ECE0EA93D8
:1001F000E1DFE1E061D0E0E04E2E5E2E0895A881BF
:10020000AA3011F0571448F0E0E0EA9343944A9280
:10021000DEDFA881AA3009F446C05394A89AE88189
:10022000EA93C8DFA8983FC01A93A981BA81ED91DB
:10023000A983BA831E2FE03019F01A93E0DFF5CFBF
:10024000188123960895A49AA59AA69AA79AA29A85
:10025000A09AA19AAA98A898A9987880E881E058CD
:10026000E0937C01E881E054E0937D01E4E1F0E07B
:10027000FA93EA930E946C0127D026D025D0E0E2C1
:10028000EA9374DF88EC90E00197F1F7E8E2EA93F3
:1002900091DFE4E0EA938EDFE5E8EA938BDFE6E0C6
:1002A000EA9388DFA1DF21960895E2BBE0E1F7E25F
:1002B000FA93EA930C946C01EA937CDFE3E0F0E0BC
:1002C000FA93EA930C946C01E0E3EA934FDF88EC35
:1002D00090E00197F1F70895E991F991309639F09E
:1002E00080ED97E00197F1F7A8953197C9F7089548
:00000001FF
