:100000000C9430010C9400000C9400000C9400003F
:100010000C9400000C9400000C9400000C94000060
:100020000C9400000C9400000C9400000C946001EF
:100030000C9400000C9400000C9400000C94000040
:100040000C9400000C9400000C94D5050C94000056
:100050000C9400001027E80364000A00010000105F
:100060000001100001006400C80090012003F8FFA7
:10007000FCFFFEFFFFFF000064009600030050003D
:100080001E0025356900200043414E482042414F63
:100090002043484159004D55432031004D554320E0
:1000A000320043414E482042414F00444B205048CB
:1000B0004F4E47004E64004173004E67756F6E6788
:1000C0005F4E6400315F4E67756F6E675F4173000E
:1000D000325F4E67756F6E675F41730061312D004F
:1000E00061312B0061322B0061322D0061335F31B1
:1000F0002D0061335F322D0061332B004E4849459E
:100100005420444F3A004E47554F4E47203A202541
:1001100034690043414E482042414F2043484159F1
:100120003A004E47554F4E472031203A202534693A
:10013000004E47554F4E472032203A202534690063
:10014000414E482053414E473A004E47554F4E4787
:1001500020313A20253469004E47554F4E47203212
:100160003A202534690057414954494E4720464FAB
:10017000520053455454494E472055500042544C68
:1001800020444C5444444B0042593A2053434E546B
:100190002047524F55500053455420555000504C65
:1001A000454153452100414E20544F414E0080C0EF
:1001B00001002D4E414E00494E4600000100020054
:1001C0007600010087027800010089027A000100B0
:1001D0008B027C0001008D027E0001008F028000F6
:1001E0000200600186000E006201880006007001B6
:1001F00096000E0076018800060084019C0009002C
:100200008A01A20009009301AB000A009C01FC00D6
:100210000F00A60113010F00B50113010A00C4016C
:1002200040010A00CE0140010C00D80166010B001C
:10023000E40172010B00EF017D010F00FA0188015A
:10024000070009029701080010029E010800180229
:10025000A60102009702AE0101009E02B00100005B
:10026000F894EE27ECBBF1E0FBBFEBBFE5BFF8E194
:10027000F1BDE1BD8DE0A2E0BB27ED938A95E9F7E2
:1002800080E094E0A0E6ED930197E9F7ECEBF1E074
:1002900085919591009761F0A591B5910590159084
:1002A000BF01F00105900D920197E1F7FB01F0CF3E
:1002B000EFE5EDBFE4E0EEBFC0E6D1E00C946407EB
:1002C000EA93FA93EFB7EA931A930A931BB10CB12E
:1002D000E12FEC7189F4E52D5394F0E0E05EFD4FE1
:1002E0000083E8E0E51509F455247394E8E0E71588
:1002F00019F47724689420F809911991E991EFBFD6
:10030000F991E9911895B3991DC0E8ECF0E0FA93E2
:10031000EA930E94E20CB39915C0A7E8B2E0ED9110
:10032000FD913196FE93EE933197A0918702B091A3
:100330008802AF3FE3E0BE0728F0E0E0E0938702E9
:10034000E0938802B4991CC0E8ECF0E0FA93EA93D9
:100350000E94E20CB49914C0A7E8B2E0ED91FD91BF
:100360003197FE93EE933196A0918702B091880267
:10037000109731F4EFEFF3E0E0938702F0938802F7
:100380000895B3991DC0E8ECF0E0FA93EA930E9457
:10039000E20CB39915C0A9E8B2E0ED91FD91319658
:1003A000FE93EE933197A0918902B0918A02AF3FFC
:1003B000E3E0BE0728F0E0E0E0938902E0938A02E0
:1003C000B4991CC0E8ECF0E0FA93EA930E94E20CC6
:1003D000B49914C0A9E8B2E0ED91FD913197FE9374
:1003E000EE933196A0918902B0918A02109731F470
:1003F000EFEFF3E0E0938902F0938A020895B39956
:100400001DC0E8ECF0E0FA93EA930E94E20CB39985
:1004100015C0AFE8B2E0ED91FD913196FE93EE93F9
:100420003197A0918F02B0919002AD37E0E0BE0706
:1004300028F0E0E0E0938F02E0939002B4991CC0B2
:10044000E8ECF0E0FA93EA930E94E20CB49914C04D
:10045000AFE8B2E0ED91FD913197FE93EE933196C6
:10046000A0918F02B0919002109731F4ECE7F0E088
:10047000E0938F02F09390020895B3991DC0E8ECC9
:10048000F0E0FA93EA930E94E20CB39915C0ABE84E
:10049000B2E0ED91FD913196FE93EE933197A091EC
:1004A0008B02B0918C02AF3FE3E0BE0728F0E0E0A2
:1004B000E0938B02E0938C02B4991CC0E8ECF0E06E
:1004C000FA93EA930E94E20CB49914C0ABE8B2E04C
:1004D000ED91FD913197FE93EE933196A0918B02B1
:1004E000B0918C02109731F4E3E6F0E0E0938B02D8
:1004F000F0938C020895B3991DC0E8ECF0E0FA93F4
:10050000EA930E94E20CB39915C0ADE8B2E0ED9118
:10051000FD913196FE93EE933197A0918D02B091AB
:100520008E02AF3FE3E0BE0728F0E0E0E0938D02EB
:10053000E0938E02B4991CC0E8ECF0E0FA93EA93E1
:100540000E94E20CB49914C0ADE8B2E0ED91FD91C7
:100550003197FE93EE933196A0918D02B0918E0269
:10056000109731F4E3E6F0E0E0938D02F0938E0211
:100570000895E881E7B9369A349BFECF349AE4B106
:10058000F5B10C947709E0915D02F0915E02FA9367
:10059000EA930E94340C0E94830D6F01E0E0EA931D
:1005A000E8DFE0935F02F0936002E1E0EA93E1DFCD
:1005B000662777270E94BA0DABE7B4E18EE29EE38F
:1005C0000E94E80DA1E6B2E00E94810DED93FC933C
:1005D0000895A0916F02B0917002F601EA1BFB0B27
:1005E000E0938302F0938402A0916702B0916802C5
:1005F000E0915F02F0916002EA1BFB0BE0937B024B
:10060000F0937C02A0916902B0916A02E0915F02CE
:10061000F0916002EA1BFB0BE0937D02F0937E02F7
:10062000A0916B02B0916C02E0916102F0916202C4
:10063000EA1BFB0BE0937F02F0938002A0916D0216
:10064000B0916E02E0916102F0916202EA1BFB0B35
:10065000E0938102F0938202A0918402AA2332F0F7
:10066000E0E0E0937102E093720206C0E1E0F0E0A6
:10067000E0937102F0937202A0917C02AA2322F00F
:10068000A0917E02AA230AF006C0E0E0E093730284
:10069000E093740206C0E1E0F0E0E0937302F093AF
:1006A0007402A0917E02AA2332F0E0E0E09375028A
:1006B000E093760206C0E1E0F0E0E0937502F0938B
:1006C0007602A0917F02B09180020E94660E34F003
:1006D000E0E0E0937702E093780206C0E1E0F0E02A
:1006E000E0937702F0937802A0918202AA2332F07D
:1006F000E0E0E0937902E0937A0206C0E1E0F0E006
:10070000E0937902F0937A0208950E94E508E0915F
:100710007302F09174023097B1F40E94E508E0E0B2
:10072000EA93EA930E94D408E2E6F1E0FA93EA93AE
:100730000E942109E0E0EA93E1E0EA930E94D408F4
:10074000E0E7F1E043C0E0917502F0917602309766
:10075000B1F40E94E508E0E0EA93EA930E94D4082D
:10076000E6E7F1E0FA93EA930E942109E0E0EA93D8
:10077000E1E0EA930E94D408E4E8F1E027C0E091C8
:100780007102F0917202309761F0E0917702F0917E
:100790007802309731F0E0917902F0917A02309747
:1007A000C9F40E94E508E0E0EA93EA930E94D408C5
:1007B000EAE8F1E0FA93EA930E942109E0E0EA9383
:1007C000E1E0EA930E94D408E3E9F1E0FA93EA93C6
:1007D0000E9421090895E1E3F2E0FA93EA93E4EB41
:1007E000F0E0FA93EA9380E00E944D0B2496DA92AF
:1007F000CA929A928A920E948B0BEFE4F2E0FA93EB
:10080000EA939A928A920E94C60BE081E1E3F2E0B9
:10081000FA93EA93EFE4F2E0FA93EA930E94B70BBB
:10082000E1E3F2E0FA93EA930E947909E4E6F0E06A
:10083000FA93EA930E94E20CE1E3F2E0FA93EA937E
:10084000E7EBF0E0FA93EA9380E00E944D0B2496E8
:10085000E0916102F0916202FA93EA939A928A928D
:100860000E948B0BEFE4F2E0FA93EA939A928A9259
:1008700086C0E1E3F2E0FA93EA93EAEBF0E0FA9360
:10088000EA9380E00E944D0B2496E0916F02F09174
:100890007002FA93EA93BA92AA920E948B0BEFE449
:1008A000F2E0FA93EA93BA92AA920E94C60BE08110
:1008B000E1E3F2E0FA93EA93EFE4F2E0FA93EA93E9
:1008C0000E94B70BE1E3F2E0FA93EA930E94790900
:1008D000E4E6F0E0FA93EA930E94E20CE1E3F2E04E
:1008E000FA93EA93E4ECF0E0FA93EA9380E00E9452
:1008F0004D0B2496E0916B02F0916C02FA93EA930F
:10090000BA92AA920E948B0BEFE4F2E0FA93EA9378
:10091000BA92AA920E94C60BE081E1E3F2E0FA9358
:10092000EA93EFE4F2E0FA93EA930E94B70BE1E373
:10093000F2E0FA93EA930E947909E4E6F0E0FA9390
:10094000EA930E94E20CE1E3F2E0FA93EA93E0ED2D
:10095000F0E0FA93EA9380E00E944D0B2496E09138
:100960006D02F0916E02FA93EA93BA92AA920E94F3
:100970008B0BEFE4F2E0FA93EA93BA92AA920E9408
:10098000C60BE081E1E3F2E0FA93EA93EFE4F2E0F0
:10099000FA93EA930E94B70BE1E3F2E0FA93EA9349
:1009A0000E947909E4E6F0E0FA93EA930E94E20CEF
:1009B0000895E0916F02F0917002EC15FD0538F496
:1009C000E1E3F2E0FA93EA93ECEDF0E006C0E1E354
:1009D000F2E0FA93EA93E0EEF0E0FA93EA9380E033
:1009E0000E944D0B2496E1E3F2E0FA93EA930E9411
:1009F0007909E8ECF0E0FA93EA930E94E20CE091C6
:100A00006102F0916202A0916B02B0916C02AE178C
:100A1000BF0758F4E0916D02F0916E02A09161025F
:100A2000B0916202AE17BF0708F007C0E1E3F2E041
:100A3000FA93EA93E4EEF0E006C0E1E3F2E0FA9321
:100A4000EA93E8EEF0E0FA93EA9380E00E944D0B1F
:100A50002496E1E3F2E0FA93EA930E947909E8EC44
:100A6000F0E0FA93EA930E94E20CE0916702F091C1
:100A70006802A0915F02B0916002EA17FB0738F4A8
:100A8000E0916902F0916A02AE17BF0708F007C053
:100A9000E1E3F2E0FA93EA93ECEEF0E018C0E091C3
:100AA0006902F0916A02A0915F02B0916002AE17F4
:100AB000BF0738F0E1E3F2E0FA93EA93E2EFF0E007
:100AC00006C0E1E3F2E0FA93EA93E8EFF0E0FA938C
:100AD000EA9380E00E944D0B2496E1E3F2E0FA9362
:100AE000EA930E947909E8ECF0E0FA93EA930E9415
:100AF000E20C0895E0917102F0917202309709F4CE
:100B0000C09AA0917102B0917202119709F4C09835
:100B1000E0916B02F0916C02A0916102B0916202CF
:100B2000AE17BF0710F4C19A01C0C198EAE0F0E027
:100B3000FA93EA930E94E20CE0917302F09174023E
:100B4000309709F4C79AE0917502F09176023097D8
:100B5000E9F42297E0E0E883E983A881B9811A9754
:100B6000A0F4C79AE2E3F0E0FA93EA930E94E20C61
:100B7000C798E2E3F0E0FA93EA930E94E20CE8817E
:100B8000F9813196E883F983E8CF2296A091730228
:100B9000B0917402119731F4A0917502B091760270
:100BA000119709F001C0C79808950A921A92FA9213
:100BB0006A937A938A939A93AA93BA93EA93FA934D
:100BC000EFB7EA93E8ECF0E0FA93EA930E94E20CC4
:100BD000B29908C0A5E8B2E0ED91FD913196FE937F
:100BE000EE933197E0918502F0918602E0939502B1
:100BF000F0939602A0918502B0918602189729F48D
:100C0000E0E0E0938502E0938602E991EFBFF9917D
:100C1000E991B991A9919991899179916991F99005
:100C2000199009901895A0918502B09186021197AC
:100C3000A1F5E5DBE0918F02F0919002E0936F0265
:100C4000F0937002E0E0EA93EA930E94D408ECE9A2
:100C5000F1E0FA93EA930E942109E0E4F2E0FA93CA
:100C6000EA93E6E0F1E0FA93EA93E0916F02F09103
:100C70007002662777270E94610E84E00E944D0B68
:100C80002896E0E0EA93E1E0EA930E94D408E0E4E9
:100C9000F2E0FA93EA930E942109A0918502B091B3
:100CA00086021497A1F52FDBE0918702F09188026C
:100CB000E0936702F0936802E0E0EA93EA930E940F
:100CC000D408E6EAF1E0FA93EA930E942109E0E40D
:100CD000F2E0FA93EA93E2E2F1E0FA93EA93E09128
:100CE0006702F0916802662777270E94610E84E010
:100CF0000E944D0B2896E0E0EA93E1E0EA930E941F
:100D0000D408E0E4F2E0FA93EA930E942109A0916A
:100D10008502B09186021597A1F533DBE091890237
:100D2000F0918A02E0936902F0936A02E0E0EA93AC
:100D3000EA930E94D408E5EBF1E0FA93EA930E946B
:100D40002109E0E4F2E0FA93EA93E1E3F1E0FA93B7
:100D5000EA93E0916902F0916A02662777270E9480
:100D6000610E84E00E944D0B2896E0E0EA93E1E0FA
:100D7000EA930E94D408E0E4F2E0FA93EA930E9436
:100D80002109A0918502B09186021297A1F575DB29
:100D9000E0918B02F0918C02E0936B02F0936C0275
:100DA000E0E0EA93EA930E94D408E4ECF1E0FA93DD
:100DB000EA930E942109E0E4F2E0FA93EA93EAE47C
:100DC000F1E0FA93EA93E0916B02F0916C026627EE
:100DD00077270E94610E84E00E944D0B2896E0E088
:100DE000EA93E1E0EA930E94D408E0E4F2E0FA93A7
:100DF000EA930E942109A0918502B091860213977F
:100E0000A1F579DBE0918D02F0918E02E0936D0205
:100E1000F0936E02E0E0EA93EA930E94D408EEECCD
:100E2000F1E0FA93EA930E942109E0E4F2E0FA93F8
:100E3000EA93E8E5F1E0FA93EA93E0916D02F0912C
:100E40006E02662777270E94610E84E00E944D0B98
:100E50002896E0E0EA93E1E0EA930E94D408E0E417
:100E6000F2E0FA93EA930E942109A0918502B091E1
:100E70008602169741F50E94E508E0E0EA93EA93BE
:100E80000E94D408E8EDF1E0FA93EA930E94210968
:100E9000E0E0EA93E1E0EA930E94D408E4EEF1E0B6
:100EA000FA93EA930E942109E8EBFBE0FA93EA93B4
:100EB0000E94E20CA5E8B2E0ED91FD913196FE931F
:100EC000EE930E94E5080895E5E8E6B9E0E0E7B9A9
:100ED000EFEFE5BBE4BBE0E0EABBE3E8E7BBEFEF45
:100EE000E1BBE0E0EBB9E8E1EAB9E6E8E0BDE0E06B
:100EF000E0BDECE0E9B9EBB7E062EBBFE0E0E5BFF5
:100F0000E4BFE0E2EABFE2E2EFBDEAE1EEBDE0E02D
:100F1000EDBDECBDEEE4E7BDE0E2E6BDE0E0EBBD3B
:100F2000EABDE8EBFBE0F9BDE8BD78940E94EE0C69
:100F3000E0915D02F0915E02FA93EA93E0E0EA93B9
:100F4000EA93EA930E94920CE0E1EA9388D13DD1C2
:100F5000E0E0EA93EA9328D1EFEEF1E0FA93EA9326
:100F600070D1E0E0EA93E1E0EA931ED1EAEFF1E02C
:100F7000FA93EA9366D1E0EDF7E0FA93EA930E94E0
:100F8000E20C23D1E0E0EA93EA930ED1E9E0F2E04B
:100F9000FA93EA9356D1E0E0EA93E1E0EA9304D1D0
:100FA000E0E1F2E0FA93EA934CD1A0918502B0918E
:100FB0008602169710F437DEF8CFE5DA5ADC002403
:100FC000C014D00414F40C94A008E0915B02F091DA
:100FD0005C02EC15FD05B1F4E0916302F09164024E
:100FE000A0915F02B0916002EA17FB0759F4E0910B
:100FF0006502F0916602A0916102B0916202EA1767
:10100000FB0711F0E8DBD5DCC0925B02D0925C02FA
:10101000E0915F02F0916002E0936302F09364025A
:10102000E0916102F0916202E0936502F093660242
:10103000D0DAE0916F02F0917002CE16DF06B0F4C4
:10104000E0916702F0916802A0915F02B0916002A6
:10105000AE17BF0758F4E0916B02F0916C02A091BB
:101060006102B0916202EA17FB0708F00BC0ADD035
:10107000E0E0EA93EA9398D0E8E1F2E0FA93EA93A9
:10108000E0D001C042DB36DDE0916B02F0916C02F2
:10109000A0916102B0916202AE17BF0738F0E091F3
:1010A0006D02F0916E02EA17FB0708F40FC09598E5
:1010B000E0E0E0939102E0939202E0939302E093E8
:1010C0009402E0E0F0E0F9BDE8BD3AC0E0916B02C7
:1010D000F0916C02A0916102B0916202AE17BF075D
:1010E000A8F4E0919102F0919202309761F4E4EC5F
:1010F000F9E0F9BDE8BD959A9398E4E8F3E0FA9336
:10110000EA930E94E20CA1E9B2E014C0E0919302DC
:10111000F0919402309761F4E4E4F8E4F9BDE8BD9D
:10112000959A939AE8E5FBE1FA93EA930E94E20C20
:10113000A3E9B2E0ED91FD913196FE93EE9395987F
:1011400034CFFFCFE881E07111F0AC9A01C0AC98C8
:10115000E881E07211F0AD9A01C0AD98E881E074C9
:1011600011F0AE9A01C0AE98E881E07811F0AF9A24
:1011700001C0AF9885E08A95F1F7AA9A8DE08A952B
:10118000F1F7AA988DE08A95F1F70C947709E88138
:10119000EA93D8DFE881E295E883E881EA93D2DF39
:1011A00085E88A95F1F7A3C0E881F0E0E956FD4FA4
:1011B000E081A981EA0FEA93EADFE981E0939B02EB
:1011C000E881E0939C0222960895E2E0EA93DFDF53
:1011D000E3E0F0E0FA93EA930E94E20CECE0EA9399
:1011E000D6DFE1E0EA93D3DFE3E0F0E0FA93EA93BD
:1011F0000E94E20CE0E0E0939C02E0939B020895E1
:10120000A881AA3031F0E0919D02A0919B02AE1717
:1012100068F0E0E0EA93E0919C02EF5FE0939C02CB
:10122000EA93C2DFA881AA3009F461C0E0919B0271
:10123000EF5FE0939B02A89AE881EA93A8DFA89861
:1012400056C01A93A981BA81ED91A983BA831E2F42
:10125000E03019F01A93D4DFF5CF0C948F0CA49AD8
:10126000A59AA69AA79AA29AA09AA19AAA98A8988B
:10127000A998E881E0939D02E058E0939902E88103
:10128000E054E0939A02E4E1F0E0FA93EA930E94DA
:10129000E20CE0E3EA9356DF88EC90E00197F1F787
:1012A000E0E3EA934FDF88EC90E00197F1F7E0E3A9
:1012B000EA9348DF88EC90E00197F1F7E0E2EA93E7
:1012C00041DF88EC90E00197F1F7E8E2EA935FDF15
:1012D000E4E0EA935CDFE5E8EA9359DFE6E0EA93CD
:1012E00056DF73DF04C05D9BFECFE881ECB9219629
:1012F00008951A93A981BA81ED91A983BA831E2F0B
:10130000E03019F01A93EFDFF5CFEAE0EA93EBDF74
:101310000C948F0C1A930A93AA81BB8112960E9497
:10132000590E309759F1AA81BB8114960E94590E2B
:101330008F01309761F00230E0E01E07F0F0F80115
:1013400031978F01AA81BB811496ED93FC93AA81FA
:10135000BB811296ED91FD913196FE93EE933197FC
:10136000AC81A083AA81BB810E94590EFF232AF081
:10137000ED91FD913196FE93EE9306C0AA81BB815B
:10138000EFEFFFEFED93FC93198108810C94E00CD3
:1013900026970E946A0E10E0AC85BD85E0E0F0E083
:1013A000ED93FC93EA89FB893196EA8BFB8B3197AD
:1013B000E4912E2FE03011F40C94450BE12FE03036
:1013C00069F4253211F411E008C02A93ED85FE85F9
:1013D000FA93EA93E989FA89099556C1E130D9F47B
:1013E000253249F42A93ED85FE85FA93EA93E9893B
:1013F000FA89099548C112E040E000E02D3211F46D
:1014000001E042C12B3211F44BE23EC1203211F413
:1014100040E23AC102C0E23039F450E013E0203338
:1014200011F4006831C104C0E33011F00C94440B96
:10143000203310F02A3308F007C0AAE05A9F502D3D
:10144000E22FE0535E0F20C1E22FE33679F4E88902
:10145000F9893497E88BF98BA481AA93ED85FE85F1
:10146000FA93EA93E989FA8909950DC1E33791F472
:10147000E889F9893497E88BF98BA889B98914969A
:101480000E94590EEE83FF83FA93EA930E94D10BD8
:101490001E2F14C0E037B1F4E889F9893497E88B3E
:1014A000F98BA889B98914960E94590EEE83FF839F
:1014B000FA93EA930E94DB0B1E2F086002600F77FD
:1014C00030E043C0E43611F0E93611F4046002C0A4
:1014D000E53731F4E4E5F0E0EE83FF8315E00DC07D
:1014E000E83511F4086004C0E83711F00C94430BA0
:1014F000EEE5F0E0EE83FF8314E002FF1AC0E88916
:10150000F9893497E88BF98BA889B98914960E94D8
:10151000590EEA87FB87AB85AA232AF40E943A0E6C
:10152000EA87FB874DE2403011F01F5F01C00B7F5F
:101530000CC0E889F9893497E88BF98BA889B989B7
:1015400014960E94590EEA87FB8700FD17C01517F5
:10155000A8F407FF08C002FF04C00B7F242F11501E
:1015600001C020E301C020E22A93ED85FE85FA93B5
:10157000EA93E989FA8909955150E9CF312F01FFA2
:101580001DC03030D1F003FF06C0EE81FF812591F0
:10159000EE83FF8305C0AE81BF812D91AE83BF83F3
:1015A0002A93ED85FE85FA93EA93E989FA890995EC
:1015B000503009F051503150E4CF56C020E3EE8155
:1015C000FF810E945D0EE887F987EE81FF813296E8
:1015D000EE83FF83E885F985AA85BB85AE17BF0733
:1015E00050F02F5FA885B985EA85FB85EA1BFB0BC8
:1015F000EA87FB87EFCF2A3328F003FF02C0295F79
:1016000001C0295D04FD1FC0213320F4A885B985E0
:10161000119709F409C0531710F000FF01C01EC054
:1016200020E207FF10C020E3006102FF0CC00B7F27
:101630004A93ED85FE85FA93EA93E989FA8909953B
:10164000503009F051502A93ED85FE85FA93EA93C4
:10165000E989FA890995503009F051503150A8852F
:10166000B985129708F0AACF00FF0DC0503059F08D
:101670005150E0E2EA93ED85FE85FA93EA93E98919
:10168000FA890995F3CF10E08DCEAC85BD850E9417
:10169000590E0E94710E64960895FF92F82E2697B7
:1016A0000E946C0EDE011C960E94360E0E94590E9E
:1016B000309719F4EFEFFFEF29C0DE0116960E9474
:1016C000360E8D01DE011C960E94360E0E94590EC8
:1016D000EE83FF83E0E0E887E987DE011A960E9447
:1016E000360E0E94590EFA93EA931A930A93EAE887
:1016F000F9E0FA93EA93FE013A96FA93EA9348DE08
:101700009F01AE81BF81E0E0EC93F9010E94730E6E
:101710002A96FF900895A991B991E991F99130968F
:101720002AF4E095F09531966DE26D93E89480E1AE
:1017300097E20DD088EE93E00AD084E6992707D08F
:101740008AE005D06E2F10D066276C930895662727
:10175000E817F90720F06395E81BF90BC9F7662332
:1017600011F416F008956894605D6D930895E99101
:10177000F991A991B991CD016D916623E9F711977E
:1017800061916D936623E1F7FC010895E991F99168
:10179000A991B991CD0161916D936623E1F7FC01A7
:1017A0000895A991B991EE27FF276D91662311F055
:1017B0003196FBCF0895AA27BB27E991F9910590AF
:1017C000002011F01196FBCFFD0108951A930E949D
:1017D000EE0CE03011F4E0E0A2C0E981FA8130972C
:1017E00089F0E5E5EA930E94340D10E0A981BA8101
:1017F000ED91A983BA83EA930E94340D1F5F1830DC
:10180000A8F304C0ECECEA930E94340DE1E087C039
:101810000E946C0EEC81FD81FA93EA93D7DFE030F1
:1018200011F4E0E01DC0EEEBEA930E94340D10E0ED
:1018300028E232E03F932F932F5F3F4F0E942F0DFE
:10184000AF91BF91EC931F5F1930A0F3E8E2F2E093
:10185000FA93EA93E9E0EA930E943E0D0E94540E47
:101860000E94730E269608951A93E981FA81FA93DD
:10187000EA93CEDFE03029F4E0E0FCE36CE176ECC3
:101880004EC0A0912C02B0E0E5E00E94460EE3704D
:101890001E2FE981FA81FA93EA9398DFE03029F468
:1018A000E0E0FCE36CE176EC3AC0E4E4EA930E9409
:1018B000340DE12FA6E6B0E0F0E0EE0FFF1FEA0FD7
:1018C000FB1F0E945D0EFA93EA930E94E20CE981ED
:1018D000FA81FA93EA939CDFE03029F4E0E0FCE33C
:1018E0006CE176EC1CC00E94EE0CE12FAEE6B0E09D
:1018F000F0E0EE0FFF1FEA0FFB1F0E945D0EA091AC
:101900002802B0912902EA23FB230E944F0E0E9475
:10191000BA0DA0E0B0E080E89DE30E94E80D1881D8
:1019200023960895EB81FC81FA93EA934FDFE03030
:1019300011F4E0E045C0E881E295E07FEE0FEF6151
:10194000E883EEE4EA930E94340DE981EA930E9471
:10195000340DEA81EA930E94340DE881EA930E94F3
:10196000340DEB81FC81FA93EA9352DFE03011F4FD
:10197000E0E026C0A0912B02EA81EA1751F4A09181
:101980002A02E981EA1729F4A0912C02E881EA17DA
:1019900011F0E0E015C0EB81FC81FA93EA9316DFC9
:1019A000E03011F4E0E00CC0E8E4EA930E94340D6A
:1019B000EFE0F0E0FA93EA930E94E20C0E94EE0C52
:1019C00025960895E991F991309639F080ED97E0E8
:1019D0000197F1F7A8953197C9F70895EE27AB98CD
:1019E000A39A80EC93E00197F1F7A39885E28A959A
:1019F000F1F79B9B08958BEC8A95F1F79B9BE1E0B7
:101A00008CE093E00197F1F70895A39A85E08A9519
:101A1000F1F7A3988DE18A95F1F788949B99089442
:101A2000E79585ED8A95F1F70895E894A39A85E006
:101A30008A95F1F770FDA39883E28A95F1F79B9957
:101A400003C070FF03C0089570FF089588EC8A9565
:101A5000F1F7A3988DE08A95F1F76894089568E00E
:101A6000D4DF6A95E9F7089568E07991EE27DDDF24
:101A700026F477956A95D9F7E3950895EE2788813E
:101A8000882381F068E1A981BA8198E0FD917F2FD8
:101A90007E27779508F4E627E795F6959A95B9F7A6
:101AA0008A9599F723960895552342F4503811F4F6
:101AB000E0FF04C03196691F791F6BF050E857278B
:101AC00011F45F9373C05F3F31F0660F000C5795C0
:101AD0006795752F08955F9300200AF073C06CC05E
:101AE00050E8192E1522880F991F9527550F8795B5
:101AF00050E8072E0522660F771F7527550F67954B
:101B00000895689401C0E8945F93F2DF703818F08C
:101B10007F3F08F44BC056E1571BAAF4519558304B
:101B20000EF4593030F0EFEFFFEF6FEF7FE777F90A
:101B30001AC077275523B9F0EE0FFF1F661F771FD6
:101B40005A95D1F710C07727583028F0EF2FF62F8D
:101B5000672F5850F9CF552331F076956795F79553
:101B6000E7955A95D1F700200AF488D05F9108953F
:101B7000689401C0E894309760407040B1F0002450
:101B800026F0772312F4009479D0172E7EE11120ED
:101B900032F07A95EE0FFF1F661F111CF9CFEF2F61
:101BA000F62F612D5F938ADF5F910895EE27FF275F
:101BB000662777275F910895EFEFFFEF6FE77FEFDD
:101BC0005F910895EFEFFFEF6FE77FE75F91089573
:101BD0005F9386DF703851F3903841F30124089405
:101BE000791F23F41CF300203AF3ECCF0F921F93DC
:101BF0002F933F934F93112722279927689FA00186
:101C00008F9F302D410D591F6B9F300D411D591F66
:101C10008E9F27D0BF9F25D06A9F23D0BE9F1DD007
:101C2000AF9F1BD0AE9F110D291F391F491F591F90
:101C3000E32FF42F652F522F4F913F912F911F913A
:101C40000F9066232AF0550FEE1FFF1F661F02C07C
:101C500073954BF229DF5F910895100D211D391FF7
:101C600002C0200D311D491F591F08950024AF0DDA
:101C7000B01D0895F195E195F0400895F0956095B7
:101C80007095E195FF4F6F4F7F4F0895EE230E2E15
:101C9000FD0121F0F595E7950A94E1F708956F2F7E
:101CA000660F660B762F0895EE23E1E009F0EE272C
:101CB0000895ED91FC91119708950590F491E02D10
:101CC00008957A936A93FA93EA93089500240A1682
:101CD0000B0608955A934A933A932A931A930A93B8
:101CE00008955D814C813B812A8119810881089585
:00000001FF
